:020000042400D6
:1000000000000220010A0024FD0900245167002499
:10001000FD090024FD090024FD0900240000000062
:10002000000000000000000000000000FD090024A6
:10003000FD09002400000000FD090024D56600240D
:10004000FD090024FD090024FD090024FD09002408
:10005000FD090024FD090024FD090024FD090024F8
:10006000FD090024FD090024FD0900248952002413
:1000700095520024E5420024A1520024AD520024F0
:10008000956200246D470024FD090024FD09002429
:10009000FD090024FD090024FD090024FD090024B8
:1000A000FD090024FD090024FD090024FD090024A8
:1000B00015170124211701242D170124A14700241D
:1000C000FD090024AD470024FD090024850F01240B
:1000D000910F0124C9600024F96000242D610024DF
:1000E000FD090024FD09002400000000FD09002492
:1000F000FD090024FD090024FD090024FD09002458
:10010000FD090024FD090024391701249D0F012455
:100110006161002495610024FD090024FD0900248B
:10012000FD090024FD090024C10F0124F50F01245D
:10013000C9620024FD090024FD090024FD090024F2
:1001400000000000000000000000000000000000AF
:10015000FD090024FD090024FD090024C9610024D3
:10016000B9470024FD090024E5660024096700243E
:10017000FD0900242D670024FD090024FD09002449
:10018000FD090024FD090024FD6100242D620024E6
:10019000A90F0124B50F0124FD090024FD09002445
:1001A000FD090024FD090024FD090024FD090024A7
:1001B000A94F0024FD090024FD090024FD090024A5
:1001C000FD090024FD090024BD3D0024C93D002493
:1001D000FD090024D53D0024FD090024FD0900246B
:1001E000FD090024FD090024FD090024FD09002467
:1001F000FD090024FD090024FD090024FD09002457
:10020000FD090024FD090024FD090024FD09002446
:10021000FD090024FD090024FD090024FD09002436
:10022000FD090024FD090024FD0900240000000050
:10023000FD090024FD09002400000000FD09002440
:10024000FD090024FD090024FD090024FD09002406
:10025000FD090024FD090024FD090024FD090024F6
:10026000FD090024FD090024FD090024FD090024E6
:10027000FD090024FD090024616200240000000043
:10028000FD090024FD090024FD09002400000000F0
:0802900000000000FD0900243C
:1002A00010B5054C237833B9044B13B10448AFF3B0
:1002B00000800123237010BD000400200000000016
:1002C000E44D012408B5034B1BB103490348AFF3C8
:1002D000008008BD0000000004040020E44D01245B
:1002E00001F0FF01102A2BDB10F0070F08D010F8E7
:1002F000013B013A8B422DD010F0070F42B3F6D1EB
:10030000F0B441EA012141EA014122F007047FF003
:1003100000070023F0E80256083C85EA010586EA5A
:10032000010685FA47F5A3FA87F586FA47F6A5FA96
:1003300087F68EB9EED1F0BC01F0FF0102F00702A2
:1003400032B110F8013B013A83EA010313B1F8D14D
:100350000020704701387047002D06BF354603382E
:10036000073815F0010F07D1013015F4807F02BF67
:10037000013015F4C03F0130F0BC0138704700BFB8
:1003800081F0004102E000BF83F0004330B54FEA46
:1003900041044FEA430594EA050F08BF90EA020FB3
:1003A0001FBF54EA000C55EA020C7FEA645C7FEA46
:1003B000655C00F0E2804FEA5454D4EB5555B8BF69
:1003C0006D420CDD2C4480EA020281EA030382EADA
:1003D000000083EA010180EA020281EA0303362D6C
:1003E00088BF30BD11F0004F4FEA01314FF4801C3F
:1003F0004CEA113102D0404261EB410113F0004F51
:100400004FEA03334CEA133302D0524263EB430307
:1004100094EA050F00F0A780A4F10104D5F1200EA5
:100420000DDB02FA0EFC22FA05F2801841F1000100
:1004300003FA0EF2801843FA05F359410EE0A5F1D4
:1004400020050EF1200E012A03FA0EFC28BF4CF005
:10045000020C43FA05F3C01851EBE37101F00045BB
:1004600007D54FF0000EDCF1000C7EEB00006EEBC8
:100470000101B1F5801F1BD3B1F5001F0CD3490852
:100480005FEA30004FEA3C0C04F101044FEA4452A9
:1004900012F5800F80F09A80BCF1004F08BF5FEA30
:1004A000500C50F1000041EB045141EA050130BD10
:1004B0005FEA4C0C404141EB0101013C28BFB1F522
:1004C000801FE9D291F0000F04BF01460020B1FA6D
:1004D00081F308BF2033A3F10B03B3F120020CDA40
:1004E0000C3208DD02F1140CC2F10C0201FA0CF01E
:1004F00021FA02F10CE002F11402D8BFC2F1200C83
:1005000001FA02F120FA0CFCDCBF41EA0C01904038
:10051000E41AA2BF01EB0451294330BD6FEA040481
:100520001F3C1CDA0C340EDC04F11404C4F120026C
:1005300020FA04F001FA02F340EA030021FA04F37E
:1005400045EA030130BDC4F10C04C4F1200220FAD5
:1005500002F001FA04F340EA0300294630BD21FA13
:1005600004F0294630BD94F0000F83F4801306BFD9
:1005700081F480110134013D4EE77FEA645C18BFCD
:100580007FEA655C29D094EA050F08BF90EA020F64
:1005900005D054EA000C04BF1946104630BD91EA5C
:1005A000030F1EBF0021002030BD5FEA545C05D15F
:1005B0004000494128BF41F0004130BD14F580049E
:1005C0003CBF01F5801130BD01F0004545F0FE4112
:1005D00041F470014FF0000030BD7FEA645C1ABF47
:1005E000194610467FEA655C1CBF0B46024650EA7E
:1005F000013406BF52EA033591EA030F41F40021AA
:1006000030BD00BF90F0000F04BF0021704730B52F
:100610004FF4806404F132044FF000054FF0000104
:1006200050E700BF90F0000F04BF0021704730B5C5
:100630004FF4806404F1320410F0004548BF40429A
:100640004FF000013EE700BF42004FEAE2014FEAEF
:1006500031014FEA02701FBF12F07F4393F07F4FCA
:1006600081F06051704732F07F4208BF704793F0CD
:100670007F4F04BF41F40021704730B54FF46074E0
:1006800001F0004521F000411CE700BF50EA0102E3
:1006900008BF704730B54FF000050AE050EA01028C
:1006A00008BF704730B511F0004502D5404261EBFC
:1006B00041014FF4806404F132045FEA915C3FF43D
:1006C000D8AE4FF003025FEADC0C18BF03325FEADA
:1006D000DC0C18BF033202EBDC02C2F1200300FA8B
:1006E00003FC20FA02F001FA03FE40EA0E0021FAB0
:1006F00002F11444BDE600BF53B94AB9002908BF4E
:1007000000281CBF4FF0FF314FF0FF3000F074B9EC
:10071000ADF1080C6DE904CE00F006F8DDF804E058
:10072000DDE9022304B070472DE9F047089D044637
:100730008E46002B4DD18A42944669D9B2FA82F294
:1007400052B101FA02F3C2F1200120FA01F10CFAD0
:1007500002FC41EA030E94404FEA1C48210CBEFB08
:10076000F8F61FFA8CF708FB16E341EA034306FB91
:1007700007F199420AD91CEB030306F1FF3080F020
:100780001F81994240F21C81023E63445B1AA4B26D
:10079000B3FBF8F008FB103344EA034400FB07F70F
:1007A000A7420AD91CEB040400F1FF3380F00A8150
:1007B000A74240F207816444023840EA0640E41B45
:1007C00000261DB1D4400023C5E900433146BDE8F1
:1007D000F0878B4209D9002D00F0EF800026C5E993
:1007E000000130463146BDE8F087B3FA83F6002EAB
:1007F0004AD18B4202D3824200F2F980841A61EB23
:10080000030301209E46002DE0D0C5E9004EDDE740
:1008100002B9FFDEB2FA82F2002A40F09280A1EB28
:100820000C014FEA1C471FFA8CFE0126200CB1FB7D
:10083000F7F307FB131140EA01410EFB03F0884276
:1008400008D91CEB010103F1FF3802D2884200F203
:10085000CB804346091AA4B2B1FBF7F007FB101195
:1008600044EA01440EFB00FEA64508D91CEB040433
:1008700000F1FF3102D2A64500F2BB800846A4EB8E
:100880000E0440EA03409CE7C6F12007B34022FA79
:1008900007FC4CEA030C20FA07F401FA06F31C43A8
:1008A000F9404FEA1C4900FA06F3B1FBF9F8200CB5
:1008B0001FFA8CFE09FB181140EA014108FB0EF0FB
:1008C000884202FA06F20BD91CEB010108F1FF3A4B
:1008D00080F08880884240F28580A8F10208614457
:1008E000091AA4B2B1FBF9F009FB101144EA014165
:1008F00000FB0EFE8E4508D91CEB010100F1FF3410
:100900006CD28E456AD90238614440EA0840A0FBA7
:100910000294A1EB0E01A142C846A64656D353D07D
:100920005DB1B3EB080261EB0E0101FA07F722FAA1
:1009300006F3F1401F43C5E9007100263146BDE8CA
:10094000F087C2F12003D8400CFA02FC21FA03F32D
:10095000914001434FEA1C471FFA8CFEB3FBF7F0AE
:1009600007FB10360B0C43EA064300FB0EF69E42D3
:1009700004FA02F408D91CEB030300F1FF382FD26C
:100980009E422DD9023863449B1B89B2B3FBF7F614
:1009900007FB163341EA034106FB0EF38B4208D9ED
:1009A0001CEB010106F1FF3816D28B4214D9023E2E
:1009B0006144C91A46EA004638E72E46284605E74C
:1009C0000646E3E61846F8E64B45A9D2B9EB02081D
:1009D00064EB0C0E0138A3E74646EAE7204694E7AD
:1009E0004046D1E7D0467BE7023B614432E73046E0
:1009F00009E76444023842E7704700BFFEE700BFE2
:100A00000A480B4A904203D0121A0A4913F03CF9E3
:100A100009480A4A904203D0121A002113F042F901
:100A200013F00EF901F076F9FEE700BF0000002098
:100A3000000400201C4E0124000400202CDE0020B5
:100A4000704700BF704700BF704700BF704700BFCE
:100A5000704700BF000000002DE9F047DFF8CCA18F
:100A60009146694C0AF11008684F2546684E2DEDF5
:100A7000048B9AED000A2846B7EE008B85ED020A3A
:100A800012F030FBD6ED017A95ED2C6A05F13000BD
:100A9000FDEEE77AFAEC015AB7EEC66A85ED080A70
:100AA0009FED579B17EE903AB0EE487B07EB830320
:100AB000A6EE097B93ED000A20EE250AB7EEC00AE8
:100AC00020EE070BB7EEC00B85ED0E0A12F00AFB05
:100AD000D6ED037A95ED2D6A05F16000FDEEE77A1B
:100AE00085ED140AB7EEC66A1AED017AB83517EE2D
:100AF000903AA6EE098B07EB830393ED000A20EEF4
:100B0000070AB7EEC00A20EE080BB7EEC00B05EDE2
:100B1000140A12F0E7FAC24505ED0E0AA9D1B9F19F
:100B2000000F68D0DFF808813A4F3B4E3B4D98F8F4
:100B30000010384812F05EF896ED167AD6ED2D7A50
:100B400027EE007A364867EE807A87ED0E0A84ED4C
:100B5000010A84ED0D7AC4ED197A12F0E1F894F8E7
:100B60009830F0EE408A9FED2F8A07EE903A94ED90
:100B7000137A2D48F8EEE77A67EE807AA7EE887A46
:100B800084ED137A12F0CCF895ED077AD4ED137A50
:100B900020EE070A2448E0EE087AC4ED137A12F03A
:100BA000BFF894F89A3094ED077A07EE903A94F8EB
:100BB00099301548F8EEE77A06EE903AF8EEE66AD4
:100BC00067EE807AE6EEA87AA7EE887A84ED077A57
:100BD00012F0A6F895ED067AD4ED077A20EE070A12
:100BE0000948E0EE087AC4ED077A12F099F8064851
:100BF00012F096F89BE7BDEC048BBDE8F08700BFD0
:100C00009A9999999999C93F289D0020F8450124FE
:100C10003CA000206C0800207C04002074A0002070
:100C2000889D0020DB0FC940589D0020C4A00020F3
:100C3000E8A000201B491C4B91ED006A1B4A03F100
:100C40001001F2EC016AB3EC017AFDEEE67AF8EEFF
:100C5000E77AB4EEE77AF1EE10FA11DDF8EEC67A33
:100C600077EEA66AFDEEE67AF8EEE77AB4EEE77A7A
:100C7000F1EE10FA12D442ED016A8B42E1D17047D5
:100C80000CD5F8EEC67A76EEE76AFDEEE67AF8EE77
:100C9000E77AB4EEE77AF1EE10FAECDD02ED017AD4
:100CA000EBE700BF0C000020D4A00020C4A000206F
:100CB000704700BF704700BF704700BF704700BF5C
:100CC000704700BF704700BF704700BF00000000C2
:100CD00038B5754D2DED0C8BF6EE009A95ED00CAEA
:100CE000B6EE00BB2CEE290A9FED698BB7EEC00A69
:100CF00030EE0B0B20EE080B20EE0B0BB7EEC09B7B
:100D0000B0EE490A12F098FDB7EEC9AAB7EEC00AD4
:100D10009FED617B2AEE077B27EE000BB5EE400BC3
:100D2000F1EE10FA79D4B1EEC07BB0EE490AF7EEDD
:100D3000C7CB12F0E9F9B7EEC00A9FED597B9FEDE2
:100D4000566B37EE4A7B27EE067B27EE000BB5EE9F
:100D5000400BF1EE10FA00F19180B1EEC06BDFEDC7
:100D600053BA534CB7EE00BAC4ED25CAB5EE00AB8A
:100D7000C4EDAFCAB6EE008B3BEE4CCAB7EEC66B05
:100D80008CEE2B0A84ED246A84EDAE6A9FED409BC5
:100D9000B7EEC00A30EE0A0B20EE090B20EE080B6E
:100DA000B7EEC0DBB0EE4D0A12F046FDB7EECDCA8D
:100DB000B7EEC00A9FED387B2CEE077B27EE000BC9
:100DC000B5EE400BF1EE10FA41D4B1EEC06BB0EECF
:100DD0004D0AB7EEC68B12F097F9B7EEC00A9FED39
:100DE000307B9FED2D6B37EE4CCB2CEE06CB2CEEF3
:100DF000000BB5EE400BF1EE10FA23D4B1EEC07B40
:100E000084ED538A84ED818AB7EEC77BBDEC0C8BF1
:100E100084ED527A84ED807A38BD12F015FE95ED9E
:100E200000CAB0EE407B2CEE290AB7EEC00A30EEC5
:100E30000B0B20EE080B20EE0B0BB7EEC09BB7EEB2
:100E4000C9AA72E712F000FEB0EE407BD8E712F0BC
:100E5000FBFDD5ED007AB0EE406B3BEE67BA8BEE52
:100E60002B7AB7EEC77A37EE0AAB2AEE099B29EE4A
:100E7000088BB7EEC8DBB7EECDCAA8E712F0E4FDE9
:100E800095ED00CAB0EE406B69E700BFAFF300809C
:100E90006E861BF0F9210940F5DA7A8E315FE43F66
:100EA0006E861BF0F921F93F74A000200000C843B2
:100EB000289D002030B5144C8BB08646EC460FCCF4
:100EC000ACE80F000FCCACE80F0094E803008CE80E
:100ED0000300BEF1000F14D10C4B40F204426C46EB
:100EE0000B4DA3F854200B4AA3F828E082F800E049
:100EF0000122094B1A700FCC0FC594E80F0085E84A
:100F00000F000BB030BD00BF3C4501241408002089
:100F100074A000200400002070A000202DE9F843F8
:100F2000274E01238146DFF8A480264F0024264D5A
:100F300033542DED028BB0EE408A08E0013408F105
:100F4000040804370435082C06F101062BD0A1450E
:100F5000F4D1D5ED007AB7EE007A00235FFA89F07C
:100F600078EE277AF4EEC77AF1EE10FA1FDCC5EDC1
:100F7000007AF5EEC07A00230022E0B2F1EE10FA1A
:100F800005DD32702B6001F091FAD5ED007A98ED15
:100F9000007A77EE277AC7ED007AB9F1000FCDD14C
:100FA000FFF796FECAE7BDEC028BBDE8F88333700D
:100FB00085ED007A01F07AFAD5ED007AD9E700BF25
:100FC000B4A0002094A0002074A000200CA0002059
:100FD0001D4B1B78012B03D0022B23D08BB1704704
:100FE0001A4B03F53870B83301210022834203F80D
:100FF0001E1C03F81F2C03F8201C03F81D2CF2D133
:101000007047124B03F53870B83301210022834238
:1010100003F81E1C03F81F1C03F8202C03F81D2CDA
:10102000F2D17047094B03F53870B8330021012223
:10103000834203F81E1C03F81F2C03F8201C03F83E
:101040001D2CF2D1704700BF04000020289D002015
:10105000F8B5334E334C354606F1200720465C3454
:1010600002F004FEF5EC017A04ED090AB4EE670A19
:10107000F1EE10FA18BF05ED010ABD42EED12A4D7E
:101080002A4802F093FC2A4C95F82930294F04EBAA
:10109000830387ED000AD3ED007AB4EE670AF1EE20
:1010A00010FA04D083ED000A0122234B1A70234862
:1010B00002F07CFC95F8553087ED010A04EB8303C0
:1010C000D3ED007AB4EE670AF1EE10FA04D01A4AB2
:1010D00083ED000A0123537095F8292000239A42DA
:1010E00004EB820103F101034FF0000018BF086018
:1010F000072BF4D1124C04F580752046DFED110A60
:1011000096ED040A11F0F8FC2046403496ED050AED
:1011100011F048FDA542F0D10B4BF2699A61F8BD80
:101120003CA000209C040020140800205C07002044
:101130000CA000202CA00020B4A00020B8070020A4
:101140006C080020000000006C0900202DE9F0412F
:101150004D4F00254D483C46064602F0F7FD20461F
:1011600002F078FCB37AFF2B2AD0237B13B1A37C47
:101170007F2B45D02C34E5B1454C204602F0E6FDEE
:1011800023792BB1A37A7F2B02D1B37AFF2B5DD1C8
:10119000404802F0DBFD404803F086F93F4803F089
:1011A00083F93F4803F080F93E48BDE8F04103F081
:1011B0007BB92046012502F04DFCB37AFF2BD4D138
:1011C000237B002BD6D0A37C7F2BD3D194F829305E
:1011D0000133DBB284F829300DB9032B4CD8072B2F
:1011E00001D9002D4CD1304B01221A7005F020FBA3
:1011F0002E4B0221186094F8290001F0C1F8B9E7DC
:1012000094F828300133DBB284F82830B5B9032BC9
:1012100014D9002387F82830234B4FF0010883F8B6
:10122000008005F005FB214B4146186094F828002A
:1012300001F0A6F8B37AFF2B9CD1C1E7072BEBD9BD
:10124000002DE9D0002387F85430E5E7184C2378C7
:101250000133DBB2032B28BF03232370FFF7B8FE53
:10126000114B1D7005F0E4FA104B02460221207864
:101270001A6001F085F88BE7002387F82930B2E780
:10128000002387F85530AEE7140800209C9A002010
:101290006C0400208C9A0020B0090020B7090020BF
:1012A000BE090020C509002069A000206CA0002014
:1012B0000400002038B5194B1B782DED028BCBB9FB
:1012C000174C9FED188A04F15805204602F0C2FB26
:1012D000A37CFF2B06D0237918469BB900F0F4FFBE
:1012E000B0EE408AB5EE408AF1EE10FA0DD12C3402
:1012F000AC42EAD1FFF72AFFBDEC028BBDE83840D3
:10130000FFF7A6BE94F92400E8E7B0EE480A94F887
:101310002800DFED040AFFF701FEE8E769A00020DE
:1013200014080020000000002DE9F84F5A4B5B4CD8
:10133000DFF88881DFF8889104F5387B2DED048B88
:10134000D3ED009AB7EE009AD9ED007A4FF07C56B3
:101350009FED538ADFED538AA4F1600089EE277A6E
:10136000DFF860A144ED137A012544ED118A0027CE
:1013700004ED168A44F85C6C44F8546CB0EE480AEC
:1013800044F850AC04ED127A11F0ACFED9ED007ABD
:10139000F0EE406AA4F1300089EE277A44ED077A36
:1013A00004F8335C44ED106A04F8345C04ED0A8AF6
:1013B00044F82C6CB0EE480A44F8246C44F820AC95
:1013C00044ED058A04F8607C04ED067A11F08AFE8B
:1013D000D9ED007AF0EE406A204689EE277AC4ED16
:1013E000057A04F8307C44ED046A04F8035C04F8E0
:1013F000045C84ED028AB0EE480A6660E660C4F8D8
:1014000010A0C4ED078A84ED067A11F06BFEF0EEB1
:10141000407A4046277084F82D502946C4ED087A5A
:1014200084F82C5004F8307C99ED000A04F8607CB4
:1014300044ED179AB83411F0E7FA4046B0EE680A66
:1014400088ED009A11F0AEFB5C4508F140087FF48E
:1014500079AF154C99ED000A204611F0BDFA134BF7
:10146000134A6361226299ED000A124811F01AFCD6
:10147000B0EE680A0F4811F039FC99ED000A0E48E9
:1014800011F010FCB0EE680A0B48BDEC048BBDE80F
:10149000F84F11F02BBC00BFF4450124889D0020BB
:1014A0000000C842000000006C0900206F12833A5F
:1014B00000004842AC9A0020049B00206C080020E9
:1014C000BCA00020DB0F494010B516208CB001F005
:1014D0004DF803462E4CADF808300299204602F034
:1014E0007FFC172001F042F803462046ADF80C308F
:1014F000039902F075FC182001F038F803461F200C
:10150000ADF8103001F032F803461E20ADF814306B
:1015100001F02CF803461D20ADF8183001F026F834
:10152000BDF818100822059BADF804002046ADF860
:101530000010049902F062FC1C2001F017F8034629
:101540002046ADF82030089902F04AFC1B2001F03B
:101550000DF803462046ADF82430099902F040FC0E
:101560001A2001F003F803462046ADF828300A9906
:1015700002F036FC192000F0F9FF03462046ADF8D2
:101580002C300B990CB0BDE8104002F029BC00BF14
:1015900058040020F0B5A64B0124A64FA64E2DED11
:1015A000028B95B093E803000AAD85E80300A348D9
:1015B00001F016F80920B0EE408A00F0D7FF03468C
:1015C0009F48ADF80430B0EE480A019902F0A4FB40
:1015D000082000F0CBFF0346B0EE480A9948ADF86A
:1015E0000830029902F098FB202000F0BFFF03466C
:1015F000B0EE480A9448ADF80C30039902F08CFB29
:10160000032000F0B3FF03460420ADF8103000F0D3
:10161000ADFF03460B20ADF8143000F0A7FFADF886
:101620001800B0EE480A069B8848DDE9041202F073
:10163000E1F9062000F09AFF03460520ADF81C30C2
:1016400000F094FF03460720ADF8203000F08EFF35
:10165000ADF82400B0EE480A099B7D48DDE9071289
:1016600002F0C8F912E02A7802F0E4FDB0EE480A70
:101670000146DFED780A30460123002202F064F9CA
:10168000082C25D001345C3701355C36631E0221FD
:101690007148012BE7D8D9B202F0C2FDB0EE480A7A
:1016A0000146DFED6C0A01233846002202F04CF9B6
:1016B0002A780221684802F0BDFDB0EE480A0146D2
:1016C000DFED640A01230022304602F03DF9D9E73C
:1016D000624D0324E1B26048013402F0A1FDB0EE96
:1016E000480A0146DFED5E0A28460123002202F087
:1016F0002BF9072C05F15C05ECD14F4D0CACF7EE46
:10170000000A9FED570A0CAF0FCD0FC495E80F00EC
:1017100005F14C0684E80F000CA905F11000022227
:1017200002F074FAF7EE000A9FED4D0A0FCE0FC7D4
:1017300096E80F0005F1A8060CAF84E80F000CA98D
:1017400005F16C00002202F061FAF7EE000A9FED4D
:10175000440A0FCE0FC796E80F0005F582760CAF4E
:1017600084E80F000CA905F1C800022202F04EFA2D
:10177000F7EE000A9FED3A0A0FCE0FC796E80F006A
:1017800005F5B0760CAF84E80F000CA905F5927052
:10179000002202F03BFAF0EE080A9FED310A0FCE6C
:1017A0000FC796E80F0005F5DE760CAF84E80F0052
:1017B0000CA905F5C070002202F028FAF0EE000A2C
:1017C0009FED270A0FCE0FC796E80F0005F50676A6
:1017D0000CAF84E80F000CA905F5EE70002202F0B2
:1017E00015FAB3EE040ADFED1F0A0FCE0FC796E815
:1017F0000F0005F51D760CAF84E80F000CA905F568
:101800000E70022202F002FAF7EE000A9FED140AAF
:101810000FCE0FC796E80F0084E80F0002220CA934
:1018200005F5257002F0F2F915B0BDEC028BF0BDA4
:10183000B04501245C0700207C0400201C0400202B
:101840006C0400209C9A00208C9A00201408002030
:10185000400800206F12033B34040020B89B002096
:101860000000000000409C4630B587B002230A25E6
:101870008C460DF11704C2186021054800948DF8BC
:1018800017C0CDE9013503F05BF807B030BD00BFEC
:10189000CC090020F0B5002387B0012460220A267D
:1018A0000DF116058DF81630FF23114617488DF8F7
:1018B0001730234600950DF11707CDE9014603F0D7
:1018C0003FF8204604F0B6FF2346612260210F480E
:1018D0000095CDE9014603F033F82046142404F0C6
:1018E000A9FF012522460A2660212C442B460748E1
:1018F000A4B20097CDE9015603F022F8284604F07F
:1019000099FF182CEDD107B0F0BD00BFCC09002025
:1019100010B4114C114A234604F1040C13F8011BB6
:1019200029B11178814202D1002103F8011C6345DD
:1019300002F10102F2D10A4B1A7852B1227842B96F
:10194000627832B9A27822B9E27812B905491A70E0
:101950000A705DF8044B7047E8A00020E4A0002066
:1019600035A0002034A0002038B5431E9FED2D7A0D
:10197000F2EE080A044607EE903AB0EE000AF8EEDE
:10198000E77A77EEC77AC7EEA00A11F0C1FD2649C3
:10199000264B0978264A03EB810326481178D0EDBF
:1019A000006A93ED007A19B90123234913700B7073
:1019B00022480023224D90F800C02A469E4601335B
:1019C0009C4504D0042B02F10102F7D138BD1178F7
:1019D0000029F7D1DFED1B7A1B4A60EE277A1B4BFB
:1019E00002EB8E0203EB8E1367EEA67A67EE877A20
:1019F000C2ED007AC27802708278C270427880F8B4
:101A000001C08270124A02F80E40012205F80E2031
:101A100093F82C20002AD9D01846BDE8384011F0A0
:101A200063B800BF00008A4210000020E045012496
:101A300035A000201400002034A000202000002049
:101A4000E8A000200000DC43D4A000206C080020A7
:101A5000E4A000202DE9F04100F51044C8B005468F
:101A600094F8B4301942037918D0032B1CD000220B
:101A7000027194F8B8300B40C36094F8B5300B4055
:101A80001B09092B037206D80120072B287184F843
:101A9000A43000F0E88048B0BDE8F081032BFAD80C
:101AA000DFE803F08D115802F72900F0C38095F9A3
:101AB000922095F89230002AEDDBEA1801339174F8
:101AC00085F89230E7E794F8B68001EA080885F8CF
:101AD000108094F8A4703B1F012B06D995F8933021
:101AE00003F0FD03012B40F0BB8000236E469022E3
:101AF00005F1080130462B7112F0C6F8D4F8983081
:101B0000D4F89C20013B9B1ADBB2002BF6D090222C
:101B100031460DEB020012F0B7F8D4F89C6024A90E
:101B2000902206EBC600013605EB0010F6B29830A5
:101B300012F0AAF8C4F89C60B8F1770FABD9032F64
:101B4000A9D10923A8F178012B7284F8A43085F873
:101B50009510A0E794F8B6301940697494F8A43051
:101B6000012B02D1002900F08C806E46902205F1F5
:101B70000801304612F088F8D4F89830D4F89C2048
:101B8000013B9B1ADBB2002BF6D0902231460DEBC5
:101B9000020012F079F8D4F89C6024A9902206EB98
:101BA000C600013605EB0010F6B2983012F06CF862
:101BB0000023C4F89C602B7148B0BDE8F08194F814
:101BC000A4302B72043B94F8B620012B01EA0201E9
:101BD000297405D995F8933003F0FD03012B3CD10E
:101BE00000236E46902205F1080130462B7112F059
:101BF0004BF8D4F89830D4F89C20013B9B1ADBB208
:101C0000002BF6D0902231460DEB020012F03CF88A
:101C1000D4F89C6024A9902206EBC600013605EB9F
:101C20000010F6B2983012F02FF8C4F89C6048B05B
:101C3000BDE8F08100236E46902205F10801304690
:101C40002B7112F021F8D4F89830D4F89C20013B85
:101C50009B1ADBB2002BF6D0D4E702232B711AE7D4
:101C600002232B7168E711F00800EA6036D101F019
:101C7000070385F893303BB9032285F892302A7127
:101C800009E700232B7270E74B077FF504AF6E4620
:101C90002871902205F10801304611F0F5FFD4F8C3
:101CA0009830D4F89C20013B9B1ADBB2002BF6D075
:101CB000902231460DEB020011F0E6FFD4F89C6053
:101CC00024A9902206EBC60005EB0010983011F015
:101CD000DBFF731CDBB2C4F89C30DCE608236E46E5
:101CE0002B72304684F8A43094F8BA302A719022CE
:101CF000194085F8941005F1080111F0C5FFD4F8DA
:101D00009830D4F89C20013B9B1ADBB2002BF6D014
:101D1000CEE700BF2DE9F04F9748C7B001F052FF62
:101D20009649974802F04EFDFFF7CEFB04230122AF
:101D30009449954802F090F80021944800F0BCFCCA
:101D40000221924800F030FCFFF724FC904801F09B
:101D5000FDFF8F4B9B7AFF2B00F00A81FFF7AAFA59
:101D60008A4800F01DFC8B4B022422AD83ED000A53
:101D7000FFF7DAFA8849854800F00EFCFFF78AFD84
:101D80004FF002094FF00A08802722464B46602197
:101D90007B48002600958DF88870CDE9019802F007
:101DA000CFFD192004F046FD224601344B46602148
:101DB0007348A4B200958DF88860CDE9019802F0CF
:101DC000BFFD192004F036FD112CD9D10820734F26
:101DD00000F06CFB012307F5104429462493279358
:101DE000A3F1F92304F1B000C4F8A860A3F57E03C1
:101DF000CDF898902396C4F8AC3003F57F03259670
:101E000003F57F43DFF8B0B1DFF8B0A1229347F6C6
:101E10001223DFF8AC91289304F07CFA87F808804D
:101E200004F1B000DFF89C81C4F89C60C4F89860AD
:101E30003E7104F0F9FAFFF73DFA04F0F9FC0646AA
:101E400007E0C4F8A06004F0DBFA01465348FFF74E
:101E500001FE534804F06CFB03465148002BF0D1BF
:101E6000D4F89C30D4F898209B1ADBB203B3D4F892
:101E70009C30D4F898209B1ADBB2002BF7D0D4F812
:101E800098609022284606EBC601013607EB011147
:101E9000F6B2983111F0F8FE26A980226846C4F8FF
:101EA000986011F0F1FE95E80F0000F09DF9D7E77A
:101EB00098F800602EB304F0BBFCDBF80030C01AC9
:101EC000B0F5FA7F4DD204F0B3FCDAF8003099EDAA
:101ED000007AC01A07EE900AF8EE677AF4EEC77A35
:101EE000F1EE10FAA7DB04F0A3FCD9ED007ACAF8F2
:101EF0000000F5EEC07AF1EE10FA21DDFEF79AFE51
:101F000099E7284B13F8012F92B1274A927AFF2ABA
:101F10000ED0264A927AFF2A0AD01D4AF0B2927A4F
:101F2000FF2A05D0219300F0C1FA0022219B1A70EC
:101F30000136082EE6D198F80030002BC3D0BAE75E
:101F4000F5EE407AF1EE10FA7FF475AF184A1949B0
:101F500013680B6053684B6093688B60D368CB60E9
:101F600069E70023082088F8003000F09FFAAAE70C
:101F700000F0A8F9F2E600BFB8450124CC450124E1
:101F8000CC09002058040020340400201C04002048
:101F90009C9A0020BCA00020590A0024D0090020EF
:101FA000809A0020B3A000208C9A00206C040020AE
:101FB000D4A00020C4A000206CA000205CA00020C1
:101FC00038A0002069A00020F8B500245C4E5D4DCB
:101FD0005D4F30463460746134625C4A5C4911F094
:101FE0008DF85C4B214628221C6005F10800C5E9EC
:101FF000006407F1280611F055FE282296E8030038
:10200000A86205F13000A985214611F04BFEBA8E79
:10201000AC6596E8030028654F48A5F8541000F514
:102020001043398E0460C3F8A840A3F8AC10A3F89D
:10203000AE204FF60F02C3F8B04007244749A3F87B
:10204000B820C3F8B41083F8BA40404A444911F0AC
:1020500055F8444B03F53870B83300224FF07D51EA
:10206000984243F8282C43F8242C43F81C1CF3D145
:102070003D490020354A11F041F83C4B03F5807191
:10208000403300243A4A00258B4243F8404C43F841
:102090003C4C43F8382C43F8344C43F8302C43F88C
:1020A0002C2C43F8282C43F8244C43F8204C43F8BC
:1020B0001C4C03F8145C03F8135CE1D1234A284656
:1020C0002C4911F01BF8214A2B492C4811F016F825
:1020D0002B4B1E4A28465C65C3F8AC40294911F0D9
:1020E0000DF81A4A2849294811F008F8174A2649D4
:1020F000274811F003F8154A2349264810F0FEFF3F
:10210000124A2549284610F0F9FF104A234928466B
:1021100010F0F4FF0D4A2249284610F0EFFF0B4A59
:102120002049284610F0EAFF1F4B2846074A1D8524
:10213000A3F854501D49BDE8F84010F0DFBF00BFC0
:102140001C0400205C9B00203C4501240000002072
:10215000450A0024CC090020D009002080707FF0BF
:10216000510A0024289D0020490A00246C08002000
:10217000000080BFB90C00244D0A00246C09002027
:10218000AC9A0020BD0C0024410A00249C9A002037
:102190006C0400208C9A0020C10C0024C50C002483
:1021A000C90C0024B10C002414080020B50C002434
:1021B00010B504F03DFB064A064B10601860064C53
:1021C0000649074A074B206008601060186010BD80
:1021D0006CA000205CA00020C0A0002008A000206F
:1021E00060A0002064A0002084B02DE9F041314EB1
:1021F00006AC84E80F0033780C469DF820709DF8FB
:102200002180C3B92C4D2B78A34203D0BDE8F04107
:1022100004B070479DF81830012B2FD0062B16D034
:10222000002BF3D1B8F1000FF0D03846BDE8F041F3
:1022300004B0FFF76DBBC8B200231F4D01213370FE
:10224000287000F09DF80120FEF734FEDBE7A7F5CB
:10225000005707EBC8173FB2002F18DB07EE907A44
:102260009FED166AF7EE006A154BF8EEE77A87EEF7
:10227000867A77EE267AC3ED007AC7E7B8F1000FC9
:10228000C4D03846BDE8F04104B0FFF76DBB07EE9F
:10229000107AB6EE005BB7EE006B094BBAEEE97A46
:1022A000B7EEC77AA7EE056BB7EEC66B83ED006A93
:1022B000ACE700BF68A0002070A0002000F8FF4538
:1022C00014000020704700BF012810B582B005D06F
:1022D000013017D09FED200A02B010BD1F4C04F052
:1022E000A7FA1F4B22681B78801A984216D29FEDDE
:1022F0001D0A8DED010A04F09BFA9DED010A206094
:1023000002B010BD154C04F093FA154B22681B78EF
:10231000801A984211D29FED140AEAE704F088FA75
:102320002268124B801A9FED120A1B78DFED117A9A
:10233000984228BFB0EE670ADBE704F079FA22681A
:102340000A4B801A9FED0C0A1B78DFED0C7A98423D
:1023500028BFB0EE670ACCE70000000060A00020B4
:102360001D0000200AD7233D0AD723BD1C000020F2
:102370000AD7A33C0AD7233C0AD7A3BC0AD723BC5D
:1023800030B50A462B4C85B00346012A94E8030079
:1023900004AC04E903002AD0022A26D104AA0024AE
:1023A000134413F8085C013D04E00134FFF75CFAC4
:1023B000102C1AD0A542E0B24FF00001F5D11E4A10
:1023C00001341E4BE8B2D2ED007A93ED007AF8EEBC
:1023D000E77A67EE877AFCEEE77ACDED017A9DF831
:1023E0000410FFF741FA102CE4D105B030BD2344AE
:1023F000002413F8085C04E0FFF736FA0134102CCF
:10240000F3D0A542E0B24FF00001F5D10A4A2846C8
:102410000A4BD2ED007A93ED007AF8EEE77A67EE98
:10242000877AFCEEE77ACDED017A9DF80410FFF78C
:102430001BFAE3E7404601241800002008000020B2
:1024400001280FD0022815D1BDEEC00A164B1B681B
:1024500010EE100A03FB00F09842A8BF184620EACD
:10246000E0707047F6EE007AB4EEE70AF1EE10FA8B
:1024700019D901DC00207047F7EE007AB4EEE70AC4
:10248000F1EE10FAF6D8BDEEC00A074B1A6810EE4E
:10249000103AC3F1010303FB02F09042A8BF1046BB
:1024A00020EAE0707047FFDE180000202DE9F041BF
:1024B0002C4F002480463D4603E001340435112CA6
:1024C00024D0B8EB640FF8D1E6B295ED000A0120F4
:1024D0000134FFF7B5FF0435C1B23046FFF7C4F948
:1024E00055ED017A204B0136FDEEE77A1B68F0B21C
:1024F00017EE901A03FB01F19942A8BF194621EA91
:10250000E171C9B2FFF7B0F9112CDAD1B8F1080FB7
:1025100001D0BDE8F081002403E001340437112C20
:10252000F7D0E307F9D4E5B297ED000A0120FFF7F1
:1025300087FFC1B22846FFF797F9D7ED007A0A4B1B
:10254000681CFDEEE77A1B68C0B217EE901A03FB19
:1025500001F19942A8BF194621EAE171C9B2FFF71A
:1025600083F9DAE774A0002018000020202882B048
:1025700009D8084B03EB400213F81030507843EAB7
:10258000002002B0704701230C2043EA002002B073
:10259000704700BF4C460124143001F0ADB900BFB4
:1025A000143001F0A5B900BF38B500F11405044698
:1025B0002DED028B284601F08DF9284601F098F99F
:1025C0002846B0EE408A01F081F9D0ED007AF8EEAD
:1025D000677A88EE277ABDEC028B84ED0E7A38BDDF
:1025E00090ED0E0A704700BFF0B5032399B00027A5
:1025F0000125129306462C4B09A81595CDE90E73BB
:1026000040F20453ADF84030284BCDE913570993FD
:1026100001F06EFE09A801F047FF002836D1244BD7
:1026200004AF04460090CDF842301023394604959B
:102630008DF820301F4BCDE91650CDE90650684685
:10264000059302F0BFF80823009A01A909A8ADF884
:1026500004508DF8064009940295039300F0E4F8C5
:1026600000230EA938463024049302F099FE032279
:102670004FF07E5309A906F114000B930C93CDE99A
:102680000942049A01F0EAF819B0F0BD40F60132AF
:10269000074B169704AFADF824200998CDF84230C7
:1026A000179500F081F8DBE704020404030300013E
:1026B000040604030704010B2DE9F04304462DED45
:1026C000028B83B0002948D0012140F2011200237F
:1026D0000091ADF804208DF80630304A0126304BC9
:1026E000271D304904F12908626040F20272A3609C
:1026F00040F60663E16004F125092682A4F825204E
:1027000084F82760A4F8293084F82B6004F000FADC
:102710006946054648B304F130008DF8066004F0C0
:1027200055F9072D34D104F114052046FFF75CFF5D
:10273000284601F0DDF82846B0EE408A01F0C6F8E0
:10274000D0ED007AF8EE677A88EE277A84ED0E7A7B
:1027500003B0BDEC028BBDE8F08340F201130091A1
:102760008DF80610ADF80430B7E704F1300004F03E
:102770002DF93946204602F093FA484601F0B8FD9B
:10278000404601F0B5FD04F1120000F077F9CAE708
:102790003946204602F084FAC5E700BF050805095E
:1027A00005070506050A060610B584B00346012490
:1027B000ADF8040003A8ADF80C30ADF80E4001F000
:1027C00097FD214603A801F07DFE204604F032F873
:1027D000002103A801F076FE204604F02BF82146E4
:1027E00003A801F06FFE04B010BD00BF10B5C2F326
:1027F000002384B00C46017C8DF80D2043EA44028E
:10280000FA2402238DF80C2003AA009402F070F839
:1028100018B10124204604B010BD04460A2004F07B
:1028200009F8204604B010BD034670B543F8042BE8
:10283000044684B007C983E80700A37983B91A2145
:102840000B461E22FA2523742046ADF80C200223E5
:1028500003AA009502F04CF828B1012004B070BD25
:102860001B210B46EDE70A2003F0E4FF4FF4B852BA
:1028700000950223ADF80C20204603AA217C02F02B
:1028800037F80028E9D10A2003F0D4FF41F20272A0
:1028900000950223ADF80C20204603AA217C02F00B
:1028A00027F80028D9D10A2003F0C4FF042200959C
:1028B0000223ADF80C20204603AA217C02F018F870
:1028C0000028CAD10A2003F0B5FF06220095022392
:1028D000ADF80C20204603AA217C02F009F800285C
:1028E000BBD10A2003F0A6FF41F208220095022383
:1028F000ADF80C20204603AA217C01F0F9FF002846
:10290000ABD10A20064603F095FF0095022303AAE7
:10291000217C2046ADF80C6001F0EAFF00289CD134
:10292000304603F087FF009522790C232046002AC9
:102930008DF80C3003AA4FF0020314BF622142212C
:102940008DF80D10217C01F0D3FF002885D1304691
:1029500003F070FF2279D4E902310B43DBB20AB9EC
:1029600043F0400362790AB143F020030E22FA25B6
:102970008DF80D302046009502238DF80C2003AA17
:10298000217C01F0B5FF00287FF467AF0A2003F037
:1029900051FF102200950223ADF80C20204603AA17
:1029A000217C01F0A5FF00287FF457AF0A2003F037
:1029B00041FF122100950223ADF80C1003AA217CDF
:1029C000204601F095FF00287FF447AF0A2003F06E
:1029D00031FF012209212046FFF708FF003818BF08
:1029E00001203BE7F0B5102387B0234C01220025DE
:1029F0000126002702A920460195CDE902234FF4C4
:102A00008052CDE904670AF07BFD642004F0EEFA01
:102A100002A94FF480522046CDE904670226102710
:102A2000CDE902670AF06CFD0322102302A92046BB
:102A3000CDE9022300230422CDE904234FF4805280
:102A40000AF05EFD40F23223042202A90193102312
:102A50002046CDE90223019A012305924FF48052CA
:102A600004930AF04DFD40F6060120460AF068FD89
:102A7000284607B0F0BD00BFF4A000201C4B002288
:102A80001C494FF0400C30B5054689B00220596012
:102A900007219A601A620124DA620A224FF4006E5A
:102AA000DC6006922022CDE9000104200821CDE956
:102AB000020103201021CDE9040108206946C3E981
:102AC00004024FF4C072181DC3E906C24FF48052CD
:102AD000C3E909E20AF0EAFC38B92846FFF782FFA9
:102AE000003818BF012009B030BD204609B030BD04
:102AF000F0A0002040410052614A0021D0B5136887
:102B00008EB00A91002B40F0B9805E4B01214FF648
:102B100083700C2411600221D3F8D42000260327EF
:102B200042F48052C3F8D420D3F8D42002F4805267
:102B30000092009AD3F8E02042F01002C3F8E0209F
:102B4000D3F8E02002F010020192019AD3F8E020BD
:102B500042F04002C3F8E020D3F8E02002F0400247
:102B60000292029AD3F8E02042F00802C3F8E02073
:102B7000D3F8E02002F008020392039AD3F8E02091
:102B800042F48072C3F8E020D3F8E02002F48072AF
:102B90000492049AD3F8E02042F08002C3F8E020C7
:102BA000D3F8E02002F080020592059AD3F8E020E5
:102BB00042F02002C3F8E020D3F8E02002F0200227
:102BC0000692069AD3F8E02042F00402C3F8E0200F
:102BD000D3F8E0300C9403F0040307930323079A1F
:102BE0000B93CDE9080108A9274805F0D3FE48F268
:102BF0003712022308A925480C94CDE90823CDE912
:102C00000A6705F0C7FE4CF20372022308A92048A8
:102C10000C94CDE90823CDE90A6705F0BBFE40F22C
:102C2000FF62022308A91B480C94CDE90823CDE9D3
:102C30000A6705F0AFFE4FF60C72022308A916488A
:102C40000C94CDE90823CDE90A6705F0A3FE4FF601
:102C50003F02022308A911480C94CDE90823CDE9CD
:102C60000A6705F097FE2022022308A90A480C945F
:102C7000CDE90A67CDE9082305F08CFE0EB0D0BD82
:102C8000ECA000200044025800100258001802581E
:102C9000000C025800200258001C02580014025870
:102CA0002DE9F04FDFF8108406460D46144608F172
:102CB00018002DED028B89B000AF02F069FCD8F846
:102CC000183073B3D8F81C30D8F80490002B43693F
:102CD0000BBF4FF0080A4FF0100A4FF0020B4FF0F5
:102CE000040BB9F1000F2AD0A200EA46012B02F131
:102CF000070222F00702ADEB020D6846ADEB020DB4
:102D0000694600F03F81022B00F0D680002B6FD087
:102D10002246C847D5462437BD46BDEC028BBDE8E8
:102D2000F08FD8F81C30002BF5D0D8F804904FF075
:102D3000080A4FF0020B4369B9F1000FD4D1FB61CF
:102D4000D8F80030BB61002BE5D0D54802F092FCEA
:102D50006B46BBF1020F786108EE103AFB6900F098
:102D600083816A465146A2EBC40295466200EA4658
:102D7000B2FBFBF2AAEBC40085460AEB8200EE46EA
:102D8000F861ADEB010DF8690EEB820CC7F810C0CD
:102D9000EC46ADEB010D00EB8201CCF80400CCF861
:102DA000081001EB82013869E946CCF80C1000EB01
:102DB0008201CCF800A001EB8202C9E900E0C9E978
:102DC0000212012B00F06483022B00F06C82002BB6
:102DD00000F08081620849466046BB69984718EE5A
:102DE000103A24379D46BD46BDEC028BBDE8F08FFE
:102DF000002C8DD01A46D8ED0C6A9FEDB27A84462D
:102E0000331D36F922E00CF1080C07EE90EA33F995
:102E100022E00232F8EEE77A944267EE877A67EEB4
:102E2000A67A4CED027A07EE90EAF8EEE77A67EEC2
:102E3000877A67EEA67A4CED017AE2D8F9612246EC
:102E4000C847984ED8ED0D6A0020F9692B1D9FEDFB
:102E50009E7A9FED9E6ADFED9E5A22E0F4EEC67ADE
:102E6000F1EE10FAC0F2C88447F6FE72D1ED017A95
:102E700045F8202066EEA77AF4EEC77AF1EE10FA54
:102E800040F2F080F4EEC67AF1EE10FAC0F2D5848A
:102E900047F6FE7243F820200230083184427FF664
:102EA00039AFD1ED007A66EEA77AF4EEC77AF1EE8B
:102EB00010FAD3D83246D9E7002C3FF429AFD8ED29
:102EC0000C6A84469FED787A0022331D8E4656F8B0
:102ED00022100CF1080C07EE901A53F8221002325F
:102EE000F8EEE77A944267EE877A67EEA67A4CEDC1
:102EF000027A07EE901AF8EEE77A67EE877A67EEC5
:102F0000A67A4CED017AE2D871462246C7F81CE059
:102F1000C847664ED8ED0D6A0020F9692B1D9FED5C
:102F20006A7A9FED6A6ADFF894C120E0F4EEC67A0F
:102F3000F1EE10FAC0F279843246D1ED017A45F80B
:102F4000202066EEA77AF4EEC77AF1EE10FA40F28E
:102F50008780F4EEC67AF1EE10FAC0F25E84324653
:102F600043F820200230083184427FF6D3AED1ED01
:102F7000007A66EEA77AF4EEC77AF1EE10FAD5D8A9
:102F80006246DAE7002C3FF4C3AED8ED0C6A864601
:102F90009FED477A4FF0000C331D56F82C200EF1B0
:102FA000080E82F40002A2F5000207EE902A53F800
:102FB0002C200CF1020CF8EEE77A82F40002644552
:102FC000A2F5000267EE877A67EEA67A4EED027AE6
:102FD00007EE902AF8EEE77A67EE877A67EEA67A30
:102FE0004EED017AD9D8F9612246C847314ED8ED65
:102FF0000D6A0020F9692B1D9FED337A9FED336A2E
:10300000DFF8BCC01FE0F4EEC67AF1EE10FAC0F2B1
:10301000FC833246D1ED017A45F8202066EEA77A8E
:10302000F4EEC77AF1EE10FA18D9F4EEC67AF1EEA2
:1030300010FAC0F2DA83324643F820200230083119
:1030400084427FF667AED1ED007A66EEA77AF4EEA1
:10305000C77AF1EE10FAD6D86246DBE76246EBE7B4
:1030600062467DE7324615E7A100D6466208073181
:1030700021F00701ADEB010DEA46ADEB010D69460C
:10308000ADEB0E0D0AEB8200EC46ADEB0E0D01EB45
:103090008202F861E946CCE900A0C9E9001290E695
:1030A00044A100200280FFFF000000300082FF7F6B
:1030B0000000003482FF7F0028A10020007E0080F5
:1030C0007E0080FF0000003804FF7FBF04FF7F3FC9
:1030D00000FEFF46002C00F0C982BBF1020FD8F8B9
:1030E000242000F0FA827969C7F8049002EB810E7F
:1030F0005FED0C5A8A00DCF808100EF104007A61CA
:103100001A46DCF80C303B61331DD7F810903D6156
:10311000FD69C7E902CB8C46834636F92210D8ED0B
:103120000C7A06EE101A33F9221006EE901A3EF9C8
:103130002210B8EEC66A07EE101AF8EEE66A3BF9FE
:103140002210B8EEC77A26EE256A66EEA56A27EE4B
:10315000257A26EE276A66EEA76A27EE277A07EE1B
:10316000901A51080232F8EEE77A0AEB8100944295
:1031700080ED006A05EB810067EEA57AC0ED006A7C
:103180000CEB810009EB810180ED007A98ED0C7A5F
:1031900067EE877AC1ED007ABFD8D7F804903D6911
:1031A000D7E902CB60466208BB6949469847D8F820
:1031B0002C307A69D8ED0D6A1A441FED3D7A1FED67
:1031C0003D6A2B1D904602F1040A5FED3F5A002232
:1031D000A84ED9E900EC51E0F4EEC67AF1EE10FA0F
:1031E000C0F2C78247F6FE7045F822000CEB0100E2
:1031F000D0ED007A66EEA77AF4EEC77AF1EE10FA17
:103200004BD9F4EEC67AF1EE10FAC0F2BA8247F664
:10321000FE70BBF1020F43F822002BD0D9F8080052
:103220000844D0ED007A66EEA77AF4EEC77AF1EEA4
:1032300010FA36D9F4EEC67AF1EE10FAC0F2CD8269
:1032400047F6FE7048F82200D9F80C000144D1ED91
:10325000007A66EEA77AF4EEC77AF1EE10FA1ED97C
:10326000F4EEC67AF1EE10FAC0F2AF8247F6FE71C4
:103270004AF82210023294427FF6B1AD51080EEBAB
:1032800081008900D0ED007A66EEA77AF4EEC77A65
:10329000F1EE10FAA0D83046A6E73046B9E731463D
:1032A000E6E73046CEE7002C00F0E081BBF1020FEC
:1032B000D8F8243000F0E1817A69DCF8081003EBDB
:1032C000820EC7F804909300DFED6B5A0EF10400F4
:1032D00000227B61DCF80C303B61331DD7F8109085
:1032E0003D61FD69C7E902CB8C46834656F8221042
:1032F000D8ED0C7A07EE101A53F82210B8EEC76A10
:1033000007EE101A5EF82210F8EEC76A07EE101AE0
:1033100026EE256A5BF82210B8EEC77A66EEA56A3B
:1033200026EE276A27EE257A66EEA76A27EE277A29
:1033300007EE901A51080232F8EEE77A0AEB8100A4
:10334000944280ED006A05EB810067EEA57AC0ED3E
:10335000006A0CEB810009EB810180ED007A98EDA9
:103360000C7A67EE877AC1ED007ABFD8D7F804905F
:103370003D69D7E902CB60466208BB694946984778
:10338000D8F82C307A69D8ED0D6A1A449FED3E7A50
:103390009FED3E6A131D9246DFF8E4C00022FB61F8
:1033A0002B1D364ED9E9008E4EE0F4EEC67AF1EED2
:1033B00010FAC0F2FC81304645F822000EEB010005
:1033C000D0ED007A66EEA77AF4EEC77AF1EE10FA45
:1033D00049D9F4EEC67AF1EE10FAC0F2EF81304628
:1033E000BBF1020F43F822002AD0D9F808000844A4
:1033F000D0ED007A66EEA77AF4EEC77AF1EE10FA15
:1034000035D9F4EEC67AF1EE10FAC0F2C981304631
:103410004AF82200D9F80C000144D1ED007A66EE9A
:10342000A77AF4EEC77AF1EE10FA1ED9F4EEC67A56
:10343000F1EE10FAC0F2AD813146F86940F8221081
:10344000023294427FF6CBAC510808EB8100890030
:10345000D0ED007A66EEA77AF4EEC77AF1EE10FAB4
:10346000A3D86046A8E76046BAE76146E5E760464C
:10347000CEE700BF0280FFFF000000300082FF7F28
:10348000007E00800000003404FF7FBF04FF7F3F08
:10349000002C00F0EB807A690021D8F82430C7F8BE
:1034A000109003EB820ED7F81C909300FD610EF193
:1034B00004021FED0C6A7B61331D154656F821206E
:1034C0004808D8ED0C6ABBF1020F82F40002A2F5A5
:1034D000000207EE902A53F8212082F40002B8EE91
:1034E000E77AA2F5000227EE067A07EE902A0AEBA9
:1034F0008002F8EEE77A27EE267A67EE867A82ED8A
:10350000007A09EB80024FEA800067EEA67AC2EDEE
:10351000007A27D05EF8212082F40002A2F5000292
:1035200007EE902A55F8212082F40002B8EEE77ADF
:10353000A2F5000227EE067A07EE902ADCF80820B2
:10354000F8EEE77A024427EE267A67EE867A82ED75
:10355000007A98ED0C7ADCF80C2067EE877A02444A
:10356000C2ED007A02318C42A8D8D7F8109060469C
:103570006208BB694946FD699847D8F82C307A69DA
:10358000D8ED0D6A1A441FED407A1FED406A131DF5
:103590009246DFF8C4C20022FB612B1DAB4ED9E975
:1035A000008E4EE0F4EEC67AF1EE10FAC0F2C5805D
:1035B000304645F822000EEB0100D0ED007A66EEB1
:1035C000A77AF4EEC77AF1EE10FA49D9F4EEC67A8A
:1035D000F1EE10FAC0F2BF803046BBF1020F43F8A3
:1035E00022002AD0D9F808000844D0ED007A66EE0F
:1035F000A77AF4EEC77AF1EE10FA35D9F4EEC67A6E
:10360000F1EE10FAC0F2AE8030464AF82200D9F846
:103610000C000144D1ED007A66EEA77AF4EEC77A89
:10362000F1EE10FA1ED9F4EEC67AF1EE10FAC0F2FD
:103630008B803146F86940F82210023294427FF6BE
:10364000CEAB510808EB81008900D0ED007A66EE20
:10365000A77AF4EEC77AF1EE10FAA3D86046A8E78D
:103660006046BAE76146E5E76046CEE7224649464E
:103670006046BB699847FFF7B2BBC7F810B000229D
:1036800098ED0C6A331DDFED726AD7F81CB07869CB
:1036900056F8221007EE901A53F82210B8EEE77A87
:1036A00007EE901A51080232F8EEE77A27EE267AF2
:1036B0000AEB810E94420BEB810167EEA67A27EEAE
:1036C000067A67EE867A8EED007AC1ED007ADFD851
:1036D0008300D7F810B07B614DE61A46C7F810B0EA
:1036E00098ED0C6A331DDFED5B6AD7F81CB0786982
:1036F00036F9221007EE101A33F9221007EE901A4D
:10370000B8EEC77A51080232F8EEE77A27EE267A49
:103710000AEB810E94420BEB810167EEA67A27EE4D
:10372000067A67EE867A8EED007AC1ED007ADFD8F0
:103730008300D7F810B07B6134E5F0EE675AFEEEF7
:10374000E45A15EE900A34E7F0EE675AFEEEE45ABA
:1037500015EE901A6EE7F0EE675AFEEEE45A15EE9B
:10376000900A3AE7F0EE675AFEEEE45A15EE900A38
:103770004BE767EEA57AFDEEE77A17EE900A00B206
:1037800032E567EEA57AFDEEE77A17EE900A00B211
:103790003FE5F0EE675AFEEEE05A15EE901A4CE661
:1037A000F0EE675AFEEEE05A15EE900A30E6F0EEC3
:1037B000675AFEEEE05A15EE900AFDE5F0EE675A04
:1037C000FEEEE05A15EE900A0AE667EEA57AFDEEE7
:1037D000E77A17EE901A09B24AE567EEA57AFDEE90
:1037E000E77A17EE900A00B22CE5F0EE675AFEEE8B
:1037F000E45A15EE902A1FE467EEA57AFDEEE77A0B
:1038000017EE902A12B2FFF731BBF0EE675AFEEEC8
:10381000E45A15EE902AFFF7FDBBF0EE675AFEEE74
:10382000E05A15EE902AFFF79BBBF0EE675AFEEECA
:10383000E05A15EE902AFFF780BB67EEA57AFDEE01
:10384000E77A17EE902A12B2FFF724BB82FF7F00BF
:1038500000000030000000387E0080FF30B5184CBA
:10386000154685B0046004F1080EEC460FC98EE8D9
:103870000F00D4ED047AF5EEC07A8CE80F00F1EE7B
:1038800010FA1ADDB7EE006A94ED057A27EE277A72
:10389000C6EE276A84ED0D7AC4ED0C6A6DB1204640
:1038A00040F8185F01F074FE064903690020064ADB
:1038B0002162A262E36005B030BD012005B030BDD9
:1038C00028A10020002000300000003000680830EF
:1038D000704700BFB1F5807F03680A4628BF4FF4E8
:1038E0008072B1F5807F9A6094BF002001207047FC
:1038F0000068183001F0ACBE30B5046883B00848E9
:103900000D46A368A26A216A9B00009004F118008A
:1039100001F040FE0020C4E9000503B030BD00BF47
:10392000A12C002410B4074B4FF07E51302400220C
:10393000032019619C60D8605DF8044B5961C3E9AC
:103940000622704728A10020F6EE007A9FED166A45
:1039500020EE207A0160F7EE006A80ED036A80EDC8
:10396000020A27EE277AC6EE877AF4EEE67AF1EEBF
:1039700010FA11DDF0EE667A4FF07E514FF0000C38
:1039800002760022C0ED017AC0F814C001614376CE
:103990008276C0ED070A7047F4EEC67AF1EE10FAAF
:1039A000EAD5F0EE467AE7E7000000000268037E01
:1039B000128807EE902AFBEEC87A1BB1B7EE007AA8
:1039C00077EE677AD0ED056A90ED047A77EEE67AC5
:1039D000437E67EE877A0BB1F1EE677A90ED030ACA
:1039E00090ED017A77EEC07AA7EE270A80ED030A00
:1039F000704700BF30B585B004460025ADF80C1007
:103A0000ADF80820ADF8043002F012FFBDF80C202C
:103A10004FF48073206004F118002283BDF8082061
:103A20006383E383A283257100F062FC04F11C0030
:103A300000F05EFC9FED060A019904F1080000F019
:103A40006BF94FF6FF736562238405B030BD00BF8C
:103A500000000000F8B5044602F0EAFE00262368E4
:103A60002671834205D104F10800BDE8F84000F05A
:103A70006DB9012794F82050206004F11800BD4072
:103A8000277100F011FD6DB2284394F82150BD401C
:103A900084F8200004F11C0000F006FD94F82030AA
:103AA0006DB2666203F003032843022BC0B284F8B0
:103AB000210009D000F003000228D4D1002BD2D17C
:103AC0004FF0FF336362CEE78307CCD16762CAE76A
:103AD000704700BFF8B5134F3C687F2C07D980238F
:103AE000114A42F224411C463B60A2F87E100F4D61
:103AF0002B68012B0AD90C4E0D4D22463146284623
:103B000000F052F90028F8D13860F8BD2246064985
:103B1000074800F049F90028F7D12B6838600133D5
:103B20002B60F8BD64A1002068A1002060A10020E6
:103B3000E8A1002030B4154C2168F1B14B1E144DA2
:103B4000E81810F801298C4619460A2A01D00D2AD6
:103B500002D14BB1013BF4E70CF102037F2B10D9EA
:103B60008023236030BC70470122022323600D2094
:103B70000A236854AB5430BC704701220223044D21
:103B8000F4E70CF101026146F0E700BF64A10020F8
:103B900068A1002010B5094C02460B460848216870
:103BA0000844C1F1800110F067F9236818442060CF
:103BB000FFF7C0FFFFF78EFF10BD00BF64A100201C
:103BC00068A100200FB400B583B004A951F8040B1C
:103BD0000191FFF7DFFF03B05DF804EB04B070471D
:103BE000064A0749074808B50FF088FA034A04490E
:103BF0000548BDE808400FF081BA00BF0000002072
:103C0000D13A0024E8A10020ECA10020DFED167AD3
:103C10008C46B4EE670A10B504468646F1EE10FAFB
:103C20002DED028B80ED080A48BFB0EE670AC0EDAB
:103C3000090AB0EE608A80F83420BCE80F00AEE8D4
:103C40000F009CE80F008EE80F000FF0FDFBF0EE78
:103C5000407AB0EE480AC4ED0A7A0FF0F5FB84ED25
:103C60000B0ABDEC028B10BD95BFD63390F83430F3
:103C700010B50446032B4BD8DFE803F03B2A1502AE
:103C8000FFF794FE60EE006AD4ED087A94ED097AAD
:103C900026EE800A37EE677AE0EE077AC4ED0C7AFA
:103CA000B0EE670A10BDFFF781FE94ED0A7AD4EDFD
:103CB0000B7A77EEC77AA0EE277AB0EE470A0FF0BC
:103CC00051FBF0EE407A84ED0C0AB0EE670A10BDAD
:103CD000FFF76CFED4ED087A94ED097A20EE000A25
:103CE00037EE677AE0EE077AB0EE670AC4ED0C7A39
:103CF00010BDFFF75BFED4ED087A94ED097A37EE3C
:103D0000677AE0EE077AB0EE670AC4ED0C7A10BD70
:103D1000D0ED0C7AC4E700BF70B5044682B0C1F3A1
:103D20000726CDB2ADF8041002F082FD4FF4807288
:103D30004FF001232060A01DA571A280E671A36051
:103D400002B0BDE8704000F0D3BA00BF38B50446F9
:103D500002F06EFD002223682271834210D00122FE
:103D6000A57AE37A954020602271A01D6DB243B917
:103D700000F09AFB40B22843C0B27F28A0720AD05C
:103D800038BD00F091FBB0FA80F040092843C0B282
:103D90007F28A072F4D102F04BFD07EE900AF8EEF6
:103DA000677AC4ED037A38BD084691B208B502F0CF
:103DB000F9FE003818BF012008BD00BF014806F019
:103DC0001BB800BFB0C70020014806F015B800BFFF
:103DD000B0C70020014806F00FB800BFB0C70020F0
:103DE00082B04FF0000C0323ADF80410BDF804209E
:103DF00080F810C00280438002B0704782B0082A69
:103E0000ADF800304FF00303ADF804104380BDF867
:103E10000410BDF80830BDF800C0018003811346CE
:103E2000BDF80C1028BF0823042AA0F804C0818123
:103E3000037406D8022A0AD801D10123C38002B034
:103E400070470123C3804381C38102B070470123BF
:103E5000C380438102B070472DE9F04FBE4E00256C
:103E60008FB0BE4C037006F14003426007460192DA
:103E70008846202229463046C4F85831C4F8546197
:103E8000CDE90355CDE90555CDE90755CDE90955EE
:103E9000CDE90B550FF006FF2022294604F5997055
:103EA000C4F82151C4F82551C4F82951C4F82D5142
:103EB0000FF0F8FE019B84F8385284F820317A68BC
:103EC000002A5FD02B464146B64604F590759946C8
:103ED0004FF0010A03EB0310D1F800B0D1F80480D1
:103EE0000133D1F808C02218CE6844F800B0C2F8F7
:103EF0000480C2F808C0D660087C2EF8029B1074BB
:103F00000A7C05F8012F002A69D07A68113184F8FB
:103F100038A29A42DED84FF4802291489DF80430AE
:103F200008214FF000084FF00009C4F87431002355
:103F3000C4E957020122C4F8643184F87031C4E93D
:103F40005A2194F83812C4E9608981B3C4F88821F1
:103F5000002284F8713184F878313B78C4E9632217
:103F6000A3B3012200200121013B84F89421C4E97C
:103F70006801082B2CD8DFE803F0ABB0B5BABFC49A
:103F8000C9CFD6009DF804300121C4F86421C4F8DB
:103F900074314FF4802384F87021714AC4E95723A7
:103FA00008230022C4E95A130023C4E96023012333
:103FB000002284F87131002384F878310323C4F897
:103FC00088313B78C4E96322002BCAD184F894314C
:103FD000644803F0E3FA034638B1FFBEFEE77A68AF
:103FE00011319A423FF676AF95E703A95D480393F6
:103FF00003F0E0FB0546002868D1022240F2FF737F
:10400000CDE9082300230422CDE90A2394F82031C6
:10401000002B00F0D5804FF0060921E0022B00F0C4
:104020008980012B40F0C4809AF80130012B00F008
:10403000C180002B4C4B18BF002306A94948CDE98D
:10404000063902F0EBFF002840F0BF80013594F8FC
:104050002031EDB2AB4240F2B380444B53F825908F
:104060002FB207EB071704EB070A504600F040F9A0
:1040700005EB051323441B7C042B7DDC022B00F392
:10408000918000F08D806319002283F81021E35D98
:10409000002BC3D19AF80130062B00F08580072B46
:1040A00000F08A80022B00F09680032B00F09580B0
:1040B000002B00F09680012B00F09180042B00F083
:1040C0009280052B2A4B18BF0023B6E7FFBEFEE700
:1040D00003224023C4E966237AE707226023C4E968
:1040E000662375E70F228023C4E9662370E71F2249
:1040F000A023C4E966236BE73F22C023C4E96623FB
:1041000066E77F22E023C4E9662361E7FF224FF4DC
:104110008073C4E966235BE740F2FF124FF49073AB
:10412000C4E9662354E740F2FF324FF4A073C4E9B8
:1041300066234DE79AF80130042B37D0052B3DD08C
:10414000002B40D0012B42D0022B42D0032B094B35
:1041500018BF002371E700BF0040003090A400208A
:1041600000200240ECA500200002B025904601246A
:104170000000B84F0020903603233E1D04EB0508D5
:104180004FF0000B264488F8103130460BF1010B3C
:1041900000F0AEF898F8103104365B45F5DC76E7B0
:1041A0000123EAE70223E8E7104B46E7104B44E718
:1041B000002342E70F4B40E70F4B3EE70F4B3CE736
:1041C0000FB0BDE8F08F0E4B37E7FFBEFEE70D4B9B
:1041D00033E70D4B31E70D4B2FE70D4B2DE70D4B23
:1041E0002BE70D4B29E70D4B27E700BF0800900C8C
:1041F0001000C0102000F0148000501D000180212C
:104200000004002A0008302E001060320040C03A3E
:104210000080F03E00005247000021430000844B24
:10422000034B0F29D3F8540198BF00EB41007047AE
:1042300090A40020044B0F29D3F8580198BF00EB3D
:10424000011000EB4200704790A40020214B02684F
:104250009A4200D07047204A00232048D2F8D81054
:1042600030B51F4C41F0200183B0C4F8C0010920D3
:1042700004F5E075C4E971034FF48060C2F8D8100A
:10428000D2F8D8204FF40061C4E9733094F83802B2
:1042900002F02002C4F8D4114FF400519842019268
:1042A0002846C4F8D811C4E97833019B14BF002311
:1042B0004FF48073C4F8DC3103F0A2FC08B1FFBEF8
:1042C000FEE704F5AE73C4F8A851C4F8F83103B0A2
:1042D00030BD00BF002002400044025840000240B0
:1042E00090A40020014804F003B800BF50A60020AD
:1042F0008378022B30B504468FB037D0032B33D0F0
:10430000012B31D000230A93E378012B2AD0022B12
:1043100028D000230B93002320460C9302F044FD89
:104320000546204602F048FD23780990082B13D853
:10433000DFE803F01F3245586B7E91A40500594B0E
:10434000D3F8E02042F48072C3F8E020D3F8E030E4
:1043500003F480730893089B09A9284604F01AFB0C
:104360000FB030BD0B93D6E70A93CDE711230A9324
:10437000CAE74C4B09A92846D3F8E02042F00102D5
:10438000C3F8E020D3F8E03003F001030093009B72
:1043900004F000FB0FB030BD424B09A92846D3F80A
:1043A000E02042F00202C3F8E020D3F8E03003F04E
:1043B00002030193019B04F0EDFA0FB030BD394BBD
:1043C00009A92846D3F8E02042F00402C3F8E0200F
:1043D000D3F8E03003F004030293029B04F0DAFA0E
:1043E0000FB030BD2F4B09A92846D3F8E02042F08A
:1043F0000802C3F8E020D3F8E03003F00803039389
:10440000039B04F0C7FA0FB030BD264B09A928461C
:10441000D3F8E02042F01002C3F8E020D3F8E030F7
:1044200003F010030493049B04F0B4FA0FB030BD02
:104430001C4B09A92846D3F8E02042F02002C3F81B
:10444000E020D3F8E03003F020030593059B04F04F
:10445000A1FA0FB030BD134B09A92846D3F8E020CC
:1044600042F04002C3F8E020D3F8E03003F040030C
:104470000693069B04F08EFA0FB030BD094B09A9D4
:104480002846D3F8E02042F08002C3F8E020D3F8B9
:10449000E03003F080030793079B04F07BFA0FB032
:1044A00030BD00BF0044025838B5054602F07CFC20
:1044B0000446284602F080FC01462046BDE838400C
:1044C00004F070BC70B506460D4602F06DFC044663
:1044D000304602F071FC2A1E0146204618BF012218
:1044E000BDE8704004F064BC0023122270B586B0B1
:1044F000CDE9022304930368032B01D80423059319
:10450000061D841D304602F04FFC0546304602F081
:1045100053FC034601A92846019304F03BFA2046C8
:1045200002F042FC034620461C4602F045FC01A96D
:1045300003462046019304F02DFA06B070BD00BF7B
:10454000634A0368934210B58CB028D0614A934205
:1045500058D0614A934200F09480604A934201D05F
:104560000CB010BD5E4C5F48D4F8E03043F002035D
:10457000C4F8E030D4F8E03003F002030A930A9B59
:10458000FFF7B2FFD4F8F43043F08003C4F8F430FE
:10459000D4F8F43003F080030B930B9BE0E7504C0E
:1045A0005148D4F8E03043F00203C4F8E030D4F8C6
:1045B000E03003F002030193019BFFF795FFD4F86D
:1045C000E83000221F2043F400131146C4F8E830FD
:1045D000D4F8E83003F400130293029BD4F8D830E7
:1045E00043F00103C4F8D830D4F8D83003F0010305
:1045F0000393039B03F052F91F200CB0BDE8104059
:1046000003F08AB9364C3948D4F8E03043F08003DF
:10461000C4F8E030D4F8E03003F080030493049B46
:10462000D4F8E03043F00203C4F8E030D4F8E030CE
:1046300003F002030593059BFFF756FFD4F8E8301B
:104640000022212043F480031146C4F8E830D4F856
:10465000E83003F480030693069BD4F8D83043F087
:104660000103C4F8D830D4F8D83003F0010307931D
:10467000079B03F013F921200CB0BDE8104003F0B4
:104680004BB91B48FFF730FF154B00224820D3F8E9
:10469000E840114644F40004C3F8E840D3F8E84089
:1046A00004F400040894089CD3F8D84044F00104B2
:1046B000C3F8D840D3F8D83003F001030993099B1D
:1046C00003F0ECF848200CB0BDE8104003F024B92A
:1046D0000054004000580040005C0040001C00589E
:1046E0000044025858A90020D0A60020A8A7002006
:1046F00080A800202DE9F0431A4B87B000254FF029
:1047000010099E46EC46184BFF22E04667461A7099
:104710000EF118060EF13004CDE90055CDE9025531
:10472000ADF80090BCE80F00CDE90455AEE80F00ED
:104730009CE803000095ADF800908EE80300B8E80F
:104740000F000FC69CE803000095ADF8009086E8C6
:1047500003000FCF0FC49CE8030084E8030007B0F8
:10476000BDE8F08324000020CCA6002010B5EFF3B4
:10477000108472B6084B1A78120602D504B962B6D4
:1047800010BD1B78D82205485BB202FB0300143031
:1047900003F0AEFDF2E700BFCCA60020D0A60020BB
:1047A000014805F0C7BA00BF5CA70020014805F02A
:1047B000C1BA00BF34A80020014805F0BBBA00BF51
:1047C0000CA900202DE9F0430F68D8243F4D85B097
:1047D00007FB04F4032F05EB0403036040DCCB6804
:1047E0000E46012B3CD84DD04FF0D808B646DFF826
:1047F000FC9008FB0758BEE80F00C446ACE80F0069
:10480000DEF800300DF1100ECCF80030D8F808C0FA
:1048100099E80F000EE90F000EEB8703BCF1010FC2
:1048200053F8103CC8F88C3031D0BCF1020F42D0A4
:10483000BCF1000F35D0317C8C34D823002201200C
:104840002C4403FB07534900C3E92602C3F8941024
:104850002046C3E92822C3E92A2204F033FF18B115
:10486000012005B0BDE8F0830146204605F06EFA50
:104870000028F5D10146204605F092FA003818BF0D
:104880000120EEE70B7C103B672BADD9E8E702F087
:104890003DF90F4B98420CBF0E4B0F4BC8F89030B0
:1048A000C9E702F033F90A4B98420CBF0B4B0C4B93
:1048B000C8F89030BFE702F029F9054B98420CBFC9
:1048C000084B094BC8F89030B5E700BFD0A60020D0
:1048D000000E27072D0FB0303211D0205F439060BB
:1048E0008A62E030200BA0101A0980107445012460
:1048F0002DE9F041D0F8008082B00D4617461E46E3
:1049000008F18C04204605F01DFA2028FAD1D8F8C9
:104910000C3073B96D002046089C33463A46A9B264
:10492000009404F025FF003818BF012002B0BDE854
:10493000F081089B32463946204604F0EDFFF2E74D
:104940002DE9F041046884B01E46E368BDF82C8070
:10495000C3B90D4617468C34204605F0F3F92028DC
:10496000FAD120460C9C33463A462946CDE90184CB
:104970000A9C009405F0B4F8003818BF012004B078
:10498000BDE8F081012004B0BDE8F081044B1022A5
:104990001A7483F8E82083F8C02183F898227047BE
:1049A000D0A6002030B5002395B04FF480710622C8
:1049B00004460B9306921393CDE90C13CDE90E3305
:1049C000CDE9113302F0A4F807282BD004F110052B
:1049D00041F2883206A9284605F0F4FF28B10123E8
:1049E000184684F85C3015B030BD0222022306A9B7
:1049F0002846CDE9002310220123CDE9022300221D
:104A00004FF48003CDE9042305224FF08073069212
:104A10006A460F9341F2883306F040F90028DED150
:104A200015B030BD0323012084F85C3015B030BDD3
:104A300070B50023A4B04FF080724FF48075044627
:104A4000ADF806300D93CDE910320122CDE90E53B9
:104A5000CDE91223CDE91433002943D0F02300F12E
:104A6000100508AEADF80630C02341F28832314659
:104A70002846089305F0A6FF28B10123184684F8BC
:104A80005C3024B070BD41F288320DF10601284639
:104A900006F002F803460028EFD105224FF480719A
:104AA0001E93284616924FF080721B9321931F92FB
:104AB00002AA9FED1F7BCDE91C13CDE922338DEDBA
:104AC000027B9FED1D7B41F2883316A98DED047B9F
:104AD0009FED1B7B8DED067B06F0E0F80028CCD126
:104AE00024B070BD00F1100508AE612341F2883298
:104AF00031462846089305F065FF0028BDD141F2F4
:104B000088320DF10601284606F044F80028B4D199
:104B1000BDF80630204623F0780343F04003ADF89B
:104B20000630FFF73FFF00289ED0A6E7AFF30080D6
:104B30000000000001000000100000000100000063
:104B400000000000000040002DE9F04F00234FF46A
:104B5000807501264FF0807804462DED028BABB0B6
:104B60008DF8073013932193299314950E96CDF861
:104B70005C80CDE91533CDE91863CDE91A33CDE971
:104B80002253CDE92433CDE9273306231C9301F0CA
:104B9000BFFF072808D004F1100741F288321CA992
:104BA000384605F00FFF40B10123184684F85C3009
:104BB0002BB0BDEC028BBDE8F08F4FF0020A4FF036
:104BC000020B4FF0050941F2883308AA1CA93846A8
:104BD000CDF89480CDF870909FED2D8BCDE908AB8A
:104BE0004FF0000A4FF4800B8DED0A8BCDE90CAB32
:104BF00006F054F80028D7D141F2883238460EA981
:104C000005F0E0FE0028CFD1402341F288320DF1BB
:104C1000070138468DF8073005F03EFF0028C3D164
:104C200041F288330EA902AA3846CDF83890CDF863
:104C30005C809FED197B8DED048BCDE906AB8DED8E
:104C4000027B06F02BF803460028ADD1CDF870901A
:104C50004FF00109CDF894804FF00008219308AA85
:104C600029931CA938462295CDE92333CDE9273372
:104C700041F288338DED0A8BCDE90CABCDE9088983
:104C800006F00CF8002893D0304684F85C608FE77B
:104C90001000000001000000400000004000000083
:104CA0002DE9F043624CA3B00D46046001F030FFE3
:104CB000072800F0A980286823466968AA6807C306
:104CC0001E46AB8926F8043B3046257B677B05F002
:104CD0005BFEE0B9574B012D4FF00108E061236105
:104CE00014BF4FF480134FF40003C4E9058893FA0E
:104CF000A3F3B3FA83F34FF48079013BC4F8249013
:104D0000C4E90B003046236205F0D2FD38B1012220
:104D1000134684F85C20184623B0BDE8F083662370
:104D20000B90139041F2883206A90693CDE90C90BE
:104D3000CDE90E00CDE91100304605F043FE002814
:104D4000E5D1992341F2883206A93046069305F051
:104D500039FE0028DBD105231C9019906A46149374
:104D60004FF08073219014A91D9341F288339FED79
:104D70002A7BCDE91A90CDE91F008DED007B9FEDD8
:104D8000287B30468DED027B9FED277B8DED047BEC
:104D900005F084FF0028BAD129462046FFF748FED7
:104DA0000028B4D12046FFF7CFFE03460028AED13D
:104DB000002FB0D1189330460027002606AA14A968
:104DC000CDF86890CDE91F33EB2314934FF4406383
:104DD0001B934FF4005317934FF440431C93A023AD
:104DE0001693062319934FF0805321934FF040738D
:104DF000CDE906671D9305F0C9FF034600288AD058
:104E0000434684F85C8086E701230322184684F831
:104E10005C2023B0BDE8F08300000000010000002A
:104E20001000000001000000000000000000400031
:104E300030AA0020005000522DE9F04F8FB0414BB6
:104E40000024026800AF9A427C63C7E90944C7E9BD
:104E50000B4403D03C37BD46BDE8F08F3A4B40F6DB
:104E600009213A48EB46D3F8D42007F11C0607F194
:104E7000220A4FF0020942F480424FF00308C3F8BF
:104E8000D420D3F8D42002F48042BA60BA68D3F8B0
:104E9000E02042F04002C3F8E020D3F8E02002F026
:104EA0004002FA60FA68D3F8E02042F02002C3F82A
:104EB000E020D3F8E02002F020023A613A69D3F80A
:104EC000E02042F01002C3F8E020D3F8E02002F026
:104ED00010027A617A69D3F8E02042F00202C3F846
:104EE000E020D3F8E030F86103F002033984BB61BD
:104EF000174B7B60BB697B6853F8040F7B6001F044
:104F000053FF7B680546186801F056FF16F8013B11
:104F1000786207F124012846C7F830807B63C7E92F
:104F20000A9403F037FD5645E5D100225C20114676
:104F300002F0B4FC5C2002F0EFFC3C37DD46BD46DD
:104F4000BDE8F08F00500052004402580A0A0909D7
:104F50008CAA0020114B02689A4200D07047104A78
:104F600070B5D2F8D4300F4C23F4804304F1180606
:104F7000C2F8D43054F8040F01F016FF054620683B
:104F800001F01AFF0146284603F044FEB442F1D175
:104F90005C20BDE8704002F0CDBC00BF0050005264
:104FA000004402588CAA0020014805F07BBF00BFD6
:104FB00040AA0020084B1A1D981D03F1080110B4E7
:104FC0009C1C9A6603F10A02C3E91834C3E91B0169
:104FD0005DF8044B5A67704730AA002038B5036863
:104FE00071B9026A00F1280500F5AC74012A0CBF02
:104FF000002140218BBB1D4B5722C0F858310DE0DA
:10500000426A00F1C00500F5E874012A0CBF0021D6
:105010004021EBB1164B5A22C0F8D0310023204674
:10502000C4E901214FF480524FF4806163626261F0
:105030004FF48042C4E903314FF48073C4E906237E
:105040004FF40033236202F0DBFD58B1FFBEFEE7F0
:10505000084B5822C0F8D031E0E7074B5922C0F87E
:105060005831DBE7C5E92044A56338BD1000024094
:105070007000024028000240580002402DE9F04331
:10508000821D05468BB0031D05F10A010830CDE9EC
:10509000052305F10C02AB69CDE907010992002B4C
:1050A0003DD0EB69B3FA83F84FEA58180123022286
:1050B00005AE0AAF4FF006090393CDE9012356F878
:1050C000044B2B792278934216D02B68F3B1012B35
:1050D00002D1F2B10A230493204601F06DFE03468B
:1050E0002046009301F060FE694603F053FCBE4287
:1050F000E5D10BB0BDE8F083697963789942E4D1DA
:10510000B8F1000FF3D02B68002BE0D1CDF8109050
:10511000E2E76378022B14BF0A230823DBE74FF092
:105120000108C3E7534A0368934230B505468BB084
:1051300055D02032934252D04F4A934204D020326D
:10514000934201D00BB030BD4C4C4D48D4F8E03008
:1051500043F00103C4F8E030D4F8E03003F0010379
:105160000593059BD4F8E03043F00803C4F8E03021
:10517000D4F8E03003F008030693069BD4F8E0303F
:1051800043F04003C4F8E030D4F8E03003F04003CB
:105190000793079BD4F8F03043F40003C4F8F030D1
:1051A000D4F8F03003F400030893089BFFF766FF80
:1051B000D4F8D830296843F001032F4A3048C4F8A6
:1051C000D830891AD4F8D83018BF012103F0010370
:1051D0000993099B0BB0BDE83040FFF7FFBE274C99
:1051E0002848D4F8E03043F00103C4F8E030D4F8A4
:1051F000E03003F001030093009BD4F8E03043F06B
:105200001003C4F8E030D4F8E03003F01003019349
:10521000019BD4F8E03043F04003C4F8E030D4F808
:10522000E03003F040030293029BD4F8F03043F4E3
:105230008003C4F8F030D4F8F03003F48003039313
:10524000039BFFF71BFFD4F8D830296843F0010314
:10525000084A0C48C4F8D830891AD4F8D83018BF96
:10526000012103F001030493049B0BB0BDE830401F
:10527000FFF7B4BE04580140045C014000440258EA
:1052800004AD0020A8AA0020014803F031B800BFF7
:1052900000AC0020014803F02BB800BF78AC002020
:1052A000014803F025B800BF5CAE0020014803F0C0
:1052B0001FB800BFD4AE00201A4A0368934210B44E
:1052C0000BD02032934208D0174A934216D0203296
:1052D000934213D05DF8044B7047144B0022D3F86F
:1052E0005442C3F85822002CF4D0D3F84802D3E932
:1052F000931223465DF8044B520818470B4B0022CB
:10530000D3F8B044C3F8B424002CE3D0D3F8AC24D1
:10531000D3F8A814D3F8A404520823465DF8044B2C
:10532000184700BF04580140045C0140A8AA0020AF
:10533000184A0368934210B40BD02032934208D02D
:10534000154A934217D02032934214D05DF8044B93
:105350007047124BD3E994245208C3F85822002C0A
:10536000F4D0D3E99201234601EB820100EB8200E5
:105370005DF8044B1847094BD3F8AC24D3F8B0447C
:105380005208C3F8B424002CE0D0D3F8A814D3F802
:10539000A404E8E704580140045C0140A8AA0020E6
:1053A0002DE9F04F0C684FF41776754F87B004FB6A
:1053B00006F6012C07EB060AC0F800A000F3A08057
:1053C0000D468E464FF00008D44669A3D3E900236A
:1053D00069A1D1E90001CDE9022306ABCAF85082E8
:1053E00003EB8403CDE9040153F810BC53F8083CE7
:1053F000CAE992880193BEE80F00ACE80F00BEE84E
:105400000F00ACE80F00019B9EE80300CAF828B02B
:10541000CAF8C0308CE803002B69042B0CD8DFE8F5
:1054200003F0737D879103004FF41773554A03FB14
:1054300004739A64C3F8E020AA692B6A002A43D057
:10544000002B4FF4177308BF022203FB047318BF2D
:105450000322DA6201221A63EA696B6A002A40D1E8
:10546000191E4FF4177318BF012103FB0473C3E91E
:1054700031126B69022B05D8434A12F80380434A64
:1054800052F823904FF4177306F12800424649461C
:1054900003FB04740023384463646363E365C4F866
:1054A000DC30C4F8CC30C4F8F430C4E90F33C4E9BC
:1054B0001533C4E93533C4E93B33022307F094FDC7
:1054C000002849D0FFBEFEE7191E4FF4177318BF1E
:1054D000012103FB0473C3E90B12EA696B6A002A1A
:1054E000BED0002B4FF4177308BF022203FB0473D6
:1054F00018BF0322C3F8C4200122C3F8C820B8E7AC
:10550000012007B0BDE8F08F4FF417734FF4FA5243
:1055100003FB04739A64C3F8E0208DE74FF417731C
:105520004FF47A5203FB04739A64C3F8E02083E7D4
:105530004FF417734FF4FA4203FB04739A64C3F8F1
:10554000E02079E74FF417734BF6803203FB0473C6
:105550009A64C3F8E0206FE706F1C00002234246D8
:105560004946384407F040FD0028CAD0FFBEFEE798
:1055700004580140045C014024580140245C01406F
:10558000A8AA002000770100D0460124D4460124B7
:105590000068704770B5046882B015460E46C4F8BE
:1055A0005032C4E99212069AC4F85422A269012A20
:1055B00026D0626A012A9AB211D0294604F1C000AD
:1055C000019207F0CDFD236A019A012B10D02946E4
:1055D00004F1280007F0C4FD002002B070BD04F102
:1055E000C000019207F04EFE236A019A012BEED112
:1055F000314604F1280007F045FE002002B070BDDE
:10560000226A012A9AB211D0294604F12800019297
:1056100007F0A6FD636A019A012B10D0294604F118
:10562000C00007F09DFD002002B070BD04F128000D
:10563000019207F027FE636A019A012BEED13146F1
:1056400004F1C00007F01EFE002002B070BD00BFD4
:1056500003681B69042B05D8044A02EB830393ED0E
:10566000000A70479FED020A704700BFE046012420
:1056700000803B470368D3F85802704770B5044672
:10568000554800234FF48065C4F8A8004020C4F8B2
:10569000CC301646C4F8280194F89801C4F8B0300C
:1056A0000028C4F82C31C4F83C3114BF4FF480708A
:1056B0000020C4F84431C4F8C4004FF44030C4F8AA
:1056C0003051C4F8C800C4F840014448C4E92D353D
:1056D000C4E92F33C4E94D336368C4F82001072BB4
:1056E0000BD8DFE803F03A434C555E677004512253
:1056F0005223C4F8AC20C4F8243181B9BEB994F85F
:10570000983153B1D4F8A810E2690B6823F008036C
:105710000B60136843F010031360002070BD04F1A8
:10572000A805284602F06CFA48B1FFBEFEE704F572
:105730009075284602F064FA40B1FFBEFEE704F11E
:105740001C03C4F89450C4F8E030D7E704F11C03FC
:10575000C4F89050C4F85831D1E729222A23C4F85C
:10576000AC20C4F824310029C8D0D8E72B222C2340
:10577000C4F8AC20C4F824310029BFD0CFE72D22D3
:105780002E23C4F8AC20C4F824310029B6D0C6E7D3
:105790003F224023C4F8AC20C4F824310029ADD006
:1057A000BDE741224223C4F8AC20C4F824310029CB
:1057B000A4D0B4E747224823C4F8AC20C4F824316D
:1057C00000299BD0ABE74F225023C4F8AC20C4F88B
:1057D0002431002992D0A2E78800024070040240E0
:1057E000D0F894301B682DE9F0415968C0B0D0F86A
:1057F0009C5106464942D0F8A842D5F80031C9B2BA
:10580000D5F80421013B0C1B9B1AD5F80421E4B206
:10581000DBB2A34294BFD2181219C5F80421D5F8FF
:105820000431B3F5807F05D9D5F80431A3F5807331
:10583000C5F80431C6F8A812D5F80021A718B7F5A5
:10584000807F23D9C2F58078A918D2F5807222D141
:10585000444502D0B4EB08022CD1FFB206F5D07853
:10586000C5F80071D6F8A4022518B5F5807F8CBF65
:10587000C0F5807727461FBBBC4201D0E21B0ED18A
:10588000EDB2C6F8A45240B0BDE8F081A918224696
:10589000002CE2D0A04668460EF0F6F9D8E70DEBF2
:1058A0000701EDB240460EF0EFF9C6F8A45240B041
:1058B000BDE8F0810DEB080029460EF0E5F9CCE7D4
:1058C00040443A4669460EF0DFF9D5E72DE9F04746
:1058D000DFF8FC8006460F46154698F800301B0698
:1058E0001AD44068EFF3108272B6354BC0EBC00C8F
:1058F000002443F82C1003EB8C034FF480715D619E
:10590000198130495C60DC609C6119610AB962B63A
:1059100014462046BDE8F08700F11C09484608F00F
:105920003FF82028FAD1002201213046FFF7A6FED9
:10593000044690BBEFF3108A72B696F904303946EC
:10594000214E4846214F4FF4807288F800301D4B9D
:1059500035603B6007F05EFE30B9BAF1000FD8D178
:1059600062B62046BDE8F087FF2328463C603460DD
:10597000012488F80030FFF733FF05F11C0009F01F
:105980000BFB2A46D5F89C11284685F89841FFF76D
:105990009DFFBAF1000FBCD1E2E728460124FFF7D2
:1059A0001FFF05F11C0009F0F7FA2A46D5F89C11F3
:1059B000284685F89841FFF789FF2046BDE8F08723
:1059C0006C000020D559002474C700206CC700204B
:1059D00070C70020012900D9704710B50446FFF7B1
:1059E000FFFE04F11C0009F0D7FA01232246D4F887
:1059F0009C11204684F89831BDE81040FFF766BF3F
:105A00002DE9F04F814683B00E4617461D4600F142
:105A10001C04204607F0C4FF2028FAD101220021EF
:105A20004846FFF72BFE8046002835D1EFF3108360
:105A3000019372B6DFF888B00C9B99F90420DFF867
:105A400084A0DFF88490CBF800300D9B89F800200B
:105A5000CAF800300DB11846A847BAB23146204600
:105A600007F086FD30B9019B03B962B6404603B02A
:105A7000BDE8F08F0023CBF80030CAF80030FF23D8
:105A800089F800300C9B8BB101210D98884698470E
:105A9000019B002BEAD1E8E70C9B53B101210D9843
:105AA00088469847404603B0BDE8F08F4FF00108A4
:105AB000D9E74FF00108404603B0BDE8F08F00BFC2
:105AC0006CC7002074C7002070C700202DE9F04F7C
:105AD000814683B00E4617461D4600F11C04204641
